{
  "_format": "hh-sol-artifact-1",
  "contractName": "GDrive",
  "sourceName": "contracts/GDrive.sol",
  "abi": [
    {
      "inputs": [
        {
          "internalType": "address",
          "name": "_user",
          "type": "address"
        }
      ],
      "name": "Display",
      "outputs": [
        {
          "internalType": "string[]",
          "name": "",
          "type": "string[]"
        }
      ],
      "stateMutability": "view",
      "type": "function"
    },
    {
      "inputs": [],
      "name": "DisplayAccessList",
      "outputs": [
        {
          "components": [
            {
              "internalType": "address",
              "name": "user",
              "type": "address"
            },
            {
              "internalType": "bool",
              "name": "HaveAccess",
              "type": "bool"
            }
          ],
          "internalType": "struct GDrive.Access[]",
          "name": "",
          "type": "tuple[]"
        }
      ],
      "stateMutability": "view",
      "type": "function"
    },
    {
      "inputs": [
        {
          "internalType": "address",
          "name": "user",
          "type": "address"
        }
      ],
      "name": "RevokeAccess",
      "outputs": [],
      "stateMutability": "nonpayable",
      "type": "function"
    },
    {
      "inputs": [
        {
          "internalType": "address",
          "name": "_user",
          "type": "address"
        },
        {
          "internalType": "string",
          "name": "url",
          "type": "string"
        }
      ],
      "name": "UploadImage",
      "outputs": [],
      "stateMutability": "nonpayable",
      "type": "function"
    },
    {
      "inputs": [
        {
          "internalType": "address",
          "name": "user",
          "type": "address"
        }
      ],
      "name": "allowAccess",
      "outputs": [],
      "stateMutability": "nonpayable",
      "type": "function"
    }
  ],
  "bytecode": "0x608060405234801561001057600080fd5b50611434806100206000396000f3fe608060405234801561001057600080fd5b50600436106100575760003560e01c806324d182741461005c57806336612a25146100785780634ab1fb4e14610094578063b1d22452146100c4578063c4a85bc1146100e2575b600080fd5b61007660048036038101906100719190610b71565b6100fe565b005b610092600480360381019061008d9190610ce4565b610320565b005b6100ae60048036038101906100a99190610b71565b610395565b6040516100bb9190610e81565b60405180910390f35b6100cc6105b2565b6040516100d99190610fab565b60405180910390f35b6100fc60048036038101906100f79190610b71565b6106bb565b005b6000600160003373ffffffffffffffffffffffffffffffffffffffff1673ffffffffffffffffffffffffffffffffffffffff16815260200190815260200160002060008373ffffffffffffffffffffffffffffffffffffffff1673ffffffffffffffffffffffffffffffffffffffff16815260200190815260200160002060006101000a81548160ff02191690831515021790555060005b600360003373ffffffffffffffffffffffffffffffffffffffff1673ffffffffffffffffffffffffffffffffffffffff1681526020019081526020016000208054905081101561031c578173ffffffffffffffffffffffffffffffffffffffff16600360003373ffffffffffffffffffffffffffffffffffffffff1673ffffffffffffffffffffffffffffffffffffffff168152602001908152602001600020828154811061024857610247610fcd565b5b9060005260206000200160000160009054906101000a900473ffffffffffffffffffffffffffffffffffffffff1673ffffffffffffffffffffffffffffffffffffffff1603610309576000600360003373ffffffffffffffffffffffffffffffffffffffff1673ffffffffffffffffffffffffffffffffffffffff16815260200190815260200160002082815481106102e4576102e3610fcd565b5b9060005260206000200160000160146101000a81548160ff0219169083151502179055505b808061031490611035565b915050610196565b5050565b6000808373ffffffffffffffffffffffffffffffffffffffff1673ffffffffffffffffffffffffffffffffffffffff168152602001908152602001600020819080600181540180825580915050600190039060005260206000200160009091909190915090816103909190611289565b505050565b60603373ffffffffffffffffffffffffffffffffffffffff168273ffffffffffffffffffffffffffffffffffffffff16148061045e575060011515600160008473ffffffffffffffffffffffffffffffffffffffff1673ffffffffffffffffffffffffffffffffffffffff16815260200190815260200160002060003373ffffffffffffffffffffffffffffffffffffffff1673ffffffffffffffffffffffffffffffffffffffff16815260200190815260200160002060009054906101000a900460ff161515145b61049d576040517f08c379a0000000000000000000000000000000000000000000000000000000008152600401610494906113de565b60405180910390fd5b6000808373ffffffffffffffffffffffffffffffffffffffff1673ffffffffffffffffffffffffffffffffffffffff168152602001908152602001600020805480602002602001604051908101604052809291908181526020016000905b828210156105a757838290600052602060002001805461051a906110ac565b80601f0160208091040260200160405190810160405280929190818152602001828054610546906110ac565b80156105935780601f1061056857610100808354040283529160200191610593565b820191906000526020600020905b81548152906001019060200180831161057657829003601f168201915b5050505050815260200190600101906104fb565b505050509050919050565b6060600360003373ffffffffffffffffffffffffffffffffffffffff1673ffffffffffffffffffffffffffffffffffffffff168152602001908152602001600020805480602002602001604051908101604052809291908181526020016000905b828210156106b2578382906000526020600020016040518060400160405290816000820160009054906101000a900473ffffffffffffffffffffffffffffffffffffffff1673ffffffffffffffffffffffffffffffffffffffff1673ffffffffffffffffffffffffffffffffffffffff1681526020016000820160149054906101000a900460ff16151515158152505081526020019060010190610613565b50505050905090565b60018060003373ffffffffffffffffffffffffffffffffffffffff1673ffffffffffffffffffffffffffffffffffffffff16815260200190815260200160002060008373ffffffffffffffffffffffffffffffffffffffff1673ffffffffffffffffffffffffffffffffffffffff16815260200190815260200160002060006101000a81548160ff02191690831515021790555060011515600260003373ffffffffffffffffffffffffffffffffffffffff1673ffffffffffffffffffffffffffffffffffffffff16815260200190815260200160002060008373ffffffffffffffffffffffffffffffffffffffff1673ffffffffffffffffffffffffffffffffffffffff16815260200190815260200160002060009054906101000a900460ff161515036109735760005b600360003373ffffffffffffffffffffffffffffffffffffffff1673ffffffffffffffffffffffffffffffffffffffff1681526020019081526020016000208054905081101561096d578173ffffffffffffffffffffffffffffffffffffffff16600360003373ffffffffffffffffffffffffffffffffffffffff1673ffffffffffffffffffffffffffffffffffffffff168152602001908152602001600020828154811061089957610898610fcd565b5b9060005260206000200160000160009054906101000a900473ffffffffffffffffffffffffffffffffffffffff1673ffffffffffffffffffffffffffffffffffffffff160361095a576001600360003373ffffffffffffffffffffffffffffffffffffffff1673ffffffffffffffffffffffffffffffffffffffff168152602001908152602001600020828154811061093557610934610fcd565b5b9060005260206000200160000160146101000a81548160ff0219169083151502179055505b808061096590611035565b9150506107e7565b50610afc565b600360003373ffffffffffffffffffffffffffffffffffffffff1673ffffffffffffffffffffffffffffffffffffffff16815260200190815260200160002060405180604001604052808373ffffffffffffffffffffffffffffffffffffffff168152602001600115158152509080600181540180825580915050600190039060005260206000200160009091909190915060008201518160000160006101000a81548173ffffffffffffffffffffffffffffffffffffffff021916908373ffffffffffffffffffffffffffffffffffffffff16021790555060208201518160000160146101000a81548160ff021916908315150217905550505060011515600260003373ffffffffffffffffffffffffffffffffffffffff1673ffffffffffffffffffffffffffffffffffffffff16815260200190815260200160002060008373ffffffffffffffffffffffffffffffffffffffff1673ffffffffffffffffffffffffffffffffffffffff16815260200190815260200160002060009054906101000a905050505b50565b6000604051905090565b600080fd5b600080fd5b600073ffffffffffffffffffffffffffffffffffffffff82169050919050565b6000610b3e82610b13565b9050919050565b610b4e81610b33565b8114610b5957600080fd5b50565b600081359050610b6b81610b45565b92915050565b600060208284031215610b8757610b86610b09565b5b6000610b9584828501610b5c565b91505092915050565b600080fd5b600080fd5b6000601f19601f8301169050919050565b7f4e487b7100000000000000000000000000000000000000000000000000000000600052604160045260246000fd5b610bf182610ba8565b810181811067ffffffffffffffff82111715610c1057610c0f610bb9565b5b80604052505050565b6000610c23610aff565b9050610c2f8282610be8565b919050565b600067ffffffffffffffff821115610c4f57610c4e610bb9565b5b610c5882610ba8565b9050602081019050919050565b82818337600083830152505050565b6000610c87610c8284610c34565b610c19565b905082815260208101848484011115610ca357610ca2610ba3565b5b610cae848285610c65565b509392505050565b600082601f830112610ccb57610cca610b9e565b5b8135610cdb848260208601610c74565b91505092915050565b60008060408385031215610cfb57610cfa610b09565b5b6000610d0985828601610b5c565b925050602083013567ffffffffffffffff811115610d2a57610d29610b0e565b5b610d3685828601610cb6565b9150509250929050565b600081519050919050565b600082825260208201905092915050565b6000819050602082019050919050565b600081519050919050565b600082825260208201905092915050565b60005b83811015610da6578082015181840152602081019050610d8b565b60008484015250505050565b6000610dbd82610d6c565b610dc78185610d77565b9350610dd7818560208601610d88565b610de081610ba8565b840191505092915050565b6000610df78383610db2565b905092915050565b6000602082019050919050565b6000610e1782610d40565b610e218185610d4b565b935083602082028501610e3385610d5c565b8060005b85811015610e6f5784840389528151610e508582610deb565b9450610e5b83610dff565b925060208a01995050600181019050610e37565b50829750879550505050505092915050565b60006020820190508181036000830152610e9b8184610e0c565b905092915050565b600081519050919050565b600082825260208201905092915050565b6000819050602082019050919050565b610ed881610b33565b82525050565b60008115159050919050565b610ef381610ede565b82525050565b604082016000820151610f0f6000850182610ecf565b506020820151610f226020850182610eea565b50505050565b6000610f348383610ef9565b60408301905092915050565b6000602082019050919050565b6000610f5882610ea3565b610f628185610eae565b9350610f6d83610ebf565b8060005b83811015610f9e578151610f858882610f28565b9750610f9083610f40565b925050600181019050610f71565b5085935050505092915050565b60006020820190508181036000830152610fc58184610f4d565b905092915050565b7f4e487b7100000000000000000000000000000000000000000000000000000000600052603260045260246000fd5b7f4e487b7100000000000000000000000000000000000000000000000000000000600052601160045260246000fd5b6000819050919050565b60006110408261102b565b91507fffffffffffffffffffffffffffffffffffffffffffffffffffffffffffffffff820361107257611071610ffc565b5b600182019050919050565b7f4e487b7100000000000000000000000000000000000000000000000000000000600052602260045260246000fd5b600060028204905060018216806110c457607f821691505b6020821081036110d7576110d661107d565b5b50919050565b60008190508160005260206000209050919050565b60006020601f8301049050919050565b600082821b905092915050565b60006008830261113f7fffffffffffffffffffffffffffffffffffffffffffffffffffffffffffffffff82611102565b6111498683611102565b95508019841693508086168417925050509392505050565b6000819050919050565b600061118661118161117c8461102b565b611161565b61102b565b9050919050565b6000819050919050565b6111a08361116b565b6111b46111ac8261118d565b84845461110f565b825550505050565b600090565b6111c96111bc565b6111d4818484611197565b505050565b5b818110156111f8576111ed6000826111c1565b6001810190506111da565b5050565b601f82111561123d5761120e816110dd565b611217846110f2565b81016020851015611226578190505b61123a611232856110f2565b8301826111d9565b50505b505050565b600082821c905092915050565b600061126060001984600802611242565b1980831691505092915050565b6000611279838361124f565b9150826002028217905092915050565b61129282610d6c565b67ffffffffffffffff8111156112ab576112aa610bb9565b5b6112b582546110ac565b6112c08282856111fc565b600060209050601f8311600181146112f357600084156112e1578287015190505b6112eb858261126d565b865550611353565b601f198416611301866110dd565b60005b8281101561132957848901518255600182019150602085019450602081019050611304565b868310156113465784890151611342601f89168261124f565b8355505b6001600288020188555050505b505050505050565b600082825260208201905092915050565b7f596f7520446f6e277420486176652041636365737320746f207468657365204660008201527f696c657300000000000000000000000000000000000000000000000000000000602082015250565b60006113c860248361135b565b91506113d38261136c565b604082019050919050565b600060208201905081810360008301526113f7816113bb565b905091905056fea26469706673582212203de0bf3ece887bdc07ce1550a0aa186d3250431657519aafea4ab742a3e5df2d64736f6c63430008110033",
  "linkReferences": {},
  "deployedLinkReferences": {}
}